:100000000C94AE000C94D6000C94D6000C94D60040
:100010000C94D6000C94D6000C94D6000C94D60008
:100020000C94D6000C94D6000C94D6000C94D600F8
:100030000C94D6000C94D6000C94D6000C94D600E8
:100040000C94C21C0C94D6000C943F200C9491206C
:100050000C94D6000C94D6000C94D6000C94D600C8
:100060000C9429190C94D60007634236B79BD8A785
:100070001A39685618AEBAAB558C1D3CB7CC5763CD
:10008000BD6DEDFD753EF6177231BF000000803F7B
:1000900008000000BE922449123EABAAAA2ABECD97
:1000A000CCCC4C3E00000080BEABAAAAAA3E000009
:1000B0000000BF000000803F000000000008417801
:1000C000D3BB4387D1133D190E3CC3BD4282AD2B38
:1000D0003E68EC8276BED98FE1A93E4C80EFFFBE30
:1000E00001C4FF7F3F00000000007C3C3E5E2B3DD2
:1000F0003F2F5B5D3B2C2A225C00000000002400A7
:1001000027002A0000000000250028002B00000026
:10011000000023002600290004040404040404044D
:1001200002020202020203030303030301020408A2
:100130001020408001020408102001020408102051
:100140000000000700020100000304060000000098
:10015000000000003501750AC517682211241FBE72
:10016000CFEFD8E0DEBFCDBF12E0A0E0B1E0E4E029
:10017000F3E502C005900D92A63CB107D9F716E051
:10018000A6ECB2E001C01D92AF3CB107E1F711E06F
:10019000CCE5D1E004C02297FE010E947C29C43541
:1001A000D107C9F70E942D200C9480290C940000DF
:1001B000FB01DC0104C08D910190801921F44150B4
:1001C0005040C8F7881B990B0895FB01DC0102C061
:1001D00001900D9241505040D8F70895FB01DC0189
:1001E00001900D920020E1F70895FB01DC014150E0
:1001F000504048F001900D920020C9F701C01D92B7
:1002000041505040E0F70895FB019F01E8944230CF
:10021000C4F04532B4F44A3029F497FB1EF49095AB
:1002200081959F4F642F77270E946629805D8A33CE
:100230000CF0895D8193CB010097A1F716F45DE284
:1002400051931082C9010C942501DC01FC01672F38
:1002500071917723E1F7329704C07C916D9370839D
:100260006291AE17BF07C8F3089510920003109271
:10027000FF0285E992E09093FE028093FD021092C6
:10028000020382E193E068E340E122E00E94770804
:1002900008950F931F93CF93DF93182F092FEB012E
:1002A00060E071E00E94CA23CA30D10534F4812F86
:1002B000902F61E071E00E947F23812F902FBE017B
:1002C0000E944E23812F902FDF91CF911F910F918C
:1002D0000895EF92FF920F931F936091C80270915F
:1002E000C9028091CA029091CB0220E030E048E040
:1002F00051E40E94F5257B018C012EE137EA48ECA0
:100300005EE30E94402788231CF06FEF7FEF2EC032
:10031000C801B70120916A0230916B0240916C02D2
:1003200050916D020E948C2520916E0230916F02D7
:1003300040917002509171020E94F5252091660251
:100340003091670240916802509169020E948D25A8
:100350009B01AC0160E070E080E291E40E94A7277D
:100360009B01AC01CA01B9010E945D26CB011F911E
:100370000F91FF90EF900895EF92FF920F931F93CC
:10038000CF93DF93C0E0D0E00F2EF0E0EF2EF0E04F
:10039000FF2EF0E00F2FF0E01F2FF02D81E00E94E4
:1003A000D81AAA2797FDA095BA2FBC01CD010E94AB
:1003B00090269B01AC01C801B7010E948D257B01ED
:1003C0008C0162E370E080E090E00E943E1D219687
:1003D000C530D10519F7C801B70120E030E040EA87
:1003E00050E40E94F52521E73DE342EA50E40E94F3
:1003F000442720E030E040E85AE30E944427DF91A0
:10040000CF911F910F91FF90EF900895CF93DF93BD
:10041000EC018A30910528F48DEF92E060E30E94B0
:1004200077138DEF92E0BE014AE050E00E94FD1E7E
:10043000DF91CF9108950F931F93DF93CF93CDB7A3
:10044000DEB762970FB6F894DEBF0FBECDBF8E0148
:100450000F5F1F4FC80161E071E00E94CA23C8010D
:100460000E94E3238E01095F1F4FC80163E071E022
:100470000E94CA23C8010E94E32389EF92E06AE048
:1004800042E00E94F20B882331F489EA96E065E0AD
:1004900071E00E94192089EF92E061E00E941A0D3C
:1004A000882369F489EF92E060E00E941A0D8823A6
:1004B00031F489EA96E061E271E00E9419208E0130
:1004C000035F1F4FC8016EE371E00E94CA23C80199
:1004D0000E94E32382E193E00E94B1098AE49AE05A
:1004E0000E9436176AE070E080E090E00E945D169E
:1004F0000E944D17029731F089EA96E060E471E0BE
:100500000E94192062960FB6F894DEBF0FBECDBFD1
:10051000CF91DF911F910F9108952F923F924F92AB
:100520005F926F927F928F929F92AF92BF92CF9283
:10053000DF92EF92FF920F931F93DF93CF93CDB78C
:10054000DEB76A970FB6F894DEBF0FBECDBF2DB6EB
:100550003EB64C01089481089108B401882777FDC4
:100560008095982F20E831E541E050E00E94122963
:100570006B017C015E010894A11CB11C97E0492E1F
:10058000512C4C0E5D1E8DE0682E712C6C0E7D1E64
:10059000A6C08DB7898F9EB79A8FC50160E071E0C4
:1005A0000E94CA230E94A7166C197D098E099F0913
:1005B0000E947115BC01C5010E944E230E94A7161E
:1005C0006C197D098E099F090E947A15BC01C20130
:1005D0000E944901C501B2010E948F23C2010E94FD
:1005E000E3230E94A7166C197D098E099F090E94BA
:1005F0008015BC01C3010E944901C501B3010E94DD
:100600008F23C3010E94E323C50162E571E00E94CC
:100610007F234D815E814F5F5F4FADB7BEB7A41B97
:10062000B50B0FB6F894BEBF0FBEADBF0DB71EB76A
:100630000F5F1F4FC501B80120E030E00E94BE22CD
:100640008DEF92E0B80141E00E948F13882359F4A6
:1006500089EA96E067E571E00E942F1F89EA96E03B
:10066000B8010E941920CE01439660E071E00E941B
:10067000CA2308C0682F772767FD709589EA96E03E
:100680000E9426228DEF92E00E94BA1018161906D9
:100690008CF38DEF92E00E944412882331F489EAB2
:1006A00096E06EE671E00E941920CE0143960E940A
:1006B000E323C5010E94E323898D9A8D9C010FB627
:1006C000F8943EBF0FBE2DBF08948108910880E8C2
:1006D0009EEAAEEFBFEFC80ED91EEA1EFB1E97FEC4
:1006E00058CF0FB6F8943EBE0FBE2DBE6A960FB619
:1006F000F894DEBF0FBECDBFCF91DF911F910F9158
:10070000FF90EF90DF90CF90BF90AF909F908F9031
:100710007F906F905F904F903F902F900895AF9291
:10072000BF92CF92DF92EF92FF920F931F93DF93CE
:10073000CF93CDB7DEB7C254D0400FB6F894DEBF2A
:100740000FBECDBFADB6BEB689EA96E040E855E231
:1007500060E070E00E94CC2089EA96E00E94662268
:100760008823D1F360ED77E080E090E00E943E1DA9
:10077000809111038F5F809311038E010F5F1F4FD4
:10078000C80165E871E00E94CA23C8010E94E32302
:100790000E94181D8CEC92E067E00E9421087C0109
:1007A0000E94181D8E01095F1F4FC80167E871E0A4
:1007B0000E94CA23C8010E94E3238091D90290912C
:1007C000DA02A091DB02B091DC020196A11DB11DFD
:1007D0008093D9029093DA02A093DB02B093DC02FB
:1007E0008DEFE8168FEFF80609F463C09EEFE91667
:1007F0009FEFF9066CF48BEFE8168FEFF80609F41B
:1008000088C09CEFE9169FEFF90609F09AC069C00D
:100810008FEFE8168FEFF806E1F09FEFE9169FEFF4
:10082000F9067CF1EF2809F08CC08091DD029091EF
:10083000DE02A091DF02B091E0020196A11DB11D80
:100840008093DD029093DE02A093DF02B093E0027A
:1008500091C08091E1029091E202A091E302B091F7
:10086000E4020196A11DB11D8093E1029093E20282
:10087000A093E302B093E40289EA96E069E871E0AC
:1008800077C08091E5029091E602A091E702B091D5
:10089000E8020196A11DB11D8093E5029093E60246
:1008A000A093E702B093E80289EA96E06AE971E072
:1008B0005FC08091E9029091EA02A091EB02B091B1
:1008C000EC020196A11DB11D8093E9029093EA020A
:1008D000A093EB02B093EC0289EA96E06BEA71E038
:1008E00047C08091ED029091EE02A091EF02B0918D
:1008F000F0020196A11DB11D8093ED029093EE02CE
:10090000A093EF02B093F00289EA96E06BEB71E0FE
:100910002FC08091F1029091F202A091F302B09168
:10092000F4020196A11DB11D8093F1029093F20291
:10093000A093F302B093F40289EA96E06BEC71E0C5
:1009400017C08091F5029091F602A091F702B09144
:10095000F8020196A11DB11D8093F5029093F60255
:10096000A093F702B093F80289EA96E06CED71E08B
:100970000E942F1F0E944D17029761F089EA96E0AE
:1009800060E471E00E94192068E273E280E090E088
:100990000E943E1D8E01035F1F4FC8016CEE71E087
:1009A0000E94CA23C8010E94E3230E94BC016093F5
:1009B000C8027093C9028093CA029093CB028E0141
:1009C0000D5E1F4FC8016EEE71E00E94CA23C80180
:1009D0000E94E3230E9469019093C7028093C6029C
:1009E0008E01075E1F4FC80162EF71E00E94CA23AB
:1009F000C8010E94E3238E01015E1F4FC80166EF0C
:100A000071E00E94CA23C8010E94E3238091110370
:100A1000992787FD909560EF70E00E943129892B1E
:100A200009F01FC1DDB6CEB61092010325E2E22E19
:100A3000F12CEC0EFD1EC70160E071E00E94CA239C
:100A40000E945417BC01C7010E944E230E945917EF
:100A5000BC018E01055D1F4FC8010E944901C701FD
:100A6000B8010E948F23C8010E94E3230E946117EE
:100A7000BC018E010F5C1F4FC8010E944901C701D4
:100A8000B8010E948F23C8010E94E323C70162E5D9
:100A900071E00E947F2349A55AA54F5F5F4F8DB734
:100AA0009EB7841B950B0FB6F8949EBF0FBE8DBFEB
:100AB0000DB71EB70F5F1F4FC701B80120E030E030
:100AC0000E94BE2289EA96E0B8010E9419208DEFAB
:100AD00092E0B80146E40E948F13882331F489EA3A
:100AE00096E06AEF71E00E9419208E01095C1F4FA9
:100AF000C80160E172E00E94CA23C8010E94E3239A
:100B00000E9479170E9406028DEF92E06AE30E942C
:100B1000061E0E9471170E9406028DEF92E06AE3A2
:100B20000E94061E0E9469170E9406028DEF92E045
:100B300062E172E00E942F1F0E946117BC018DEFDD
:100B400092E04AE050E00E94FD1E8DEF92E06EE2DE
:100B50000E94061E0E945917BC018DEF92E04AE0E8
:100B600050E00E94FD1E8DEF92E06EE20E94061E94
:100B70000E945417BC018DEF92E04AE050E00E94C1
:100B8000FD1E8DEF92E064E172E00E942F1F409104
:100B9000D0025091D1026091D2027091D3028DEFB8
:100BA00092E022E030E00E9416208DEF92E064E1B6
:100BB00072E00E942F1F4091CC025091CD026091B3
:100BC000CE027091CF028DEF92E022E030E00E94E1
:100BD00016208DEF92E064E172E00E942F1F409199
:100BE000C8025091C9026091CA027091CB028DEF88
:100BF00092E022E030E00E9416208DEF92E064E166
:100C000072E00E942F1F6091C6027091C7028DEFA3
:100C100092E04AE050E00E94101F80910103882377
:100C200031F089EA96E066E172E00E9419208DEFCA
:100C300092E00E944412882331F489EA96E06EE63D
:100C400071E00E94192010921103CE0185960E9436
:100C5000E3238D2D9C2D9C010FB6F8943EBF0FBE53
:100C60002DBF8E01035C1F4FC8016DE272E00E9430
:100C7000CA23C8010E94E32382E193E00E94340961
:100C800082E193E060E040E00E94FD0882E193E0B1
:100C900060E372E00E942F1F82E193E062E040E097
:100CA0000E94FD084091D0025091D1026091D20281
:100CB0007091D30282E193E022E030E00E9416209E
:100CC00082E193E068E040E00E94FD0882E193E069
:100CD00063E372E00E942F1F82E193E06AE040E04C
:100CE0000E94FD084091CC025091CD026091CE024D
:100CF0007091CF0282E193E022E030E00E94162062
:100D000082E193E060E041E00E94FD0882E193E02F
:100D100066E372E00E942F1F82E193E064E041E00D
:100D20000E94FD086091C6027091C70282E193E0C3
:100D30004AE050E00E94FD1E82E193E069E041E05C
:100D40000E94FD0882E193E06BE372E00E942F1F96
:100D500082E193E06BE041E00E94FD084091C8020F
:100D60005091C9026091CA027091CB0282E193E076
:100D700022E030E00E94162089EA96E00E94B92124
:100D8000892B09F47FC089EA96E00E94A0247B01A8
:100D90008C016115710509F050C04091D00250914D
:100DA000D1026091D2027091D30289EA96E022E0EA
:100DB00030E00E94162089EA96E064E172E00E9429
:100DC0002F1F4091CC025091CD026091CE027091C4
:100DD000CF0289EA96E022E030E00E94162089EAFC
:100DE00096E064E172E00E942F1F4091C80250918A
:100DF000C9026091CA027091CB0289EA96E022E0B2
:100E000030E00E94162089EA96E064E172E00E94D8
:100E10002F1F6091C6027091C7029FEF6F3F790745
:100E200029F489EA96E06EE372E024C089EA96E04C
:100E30004AE050E00E94101F1FC01616170614F556
:100E400089EA96E065E472E00E942F1F60ED77E08A
:100E500080E090E00E943E1D89EA96E0B7014AE0FA
:100E600050E00E94101FC7010E948D0289EA96E09F
:100E700060E572E00E94192089EA96E063E472E07E
:100E80000E942F1F89EA96E00E9453210FB6F89422
:100E9000BEBE0FBEADBECE5BDF4F0FB6F894DEBF59
:100EA0000FBECDBFCF91DF911F910F91FF90EF90BB
:100EB000DF90CF90BF90AF9008959F92AF92BF9276
:100EC000CF92DF92EF92FF920F931F93CF93DF9316
:100ED0005C01D62EE42EB8E2CB2EC21A262F30E0CB
:100EE000C901845D9E4FFC019490285E3E4FF9013C
:100EF0008491E82FF0E0EE0FFF1FE25FFE4FC591F7
:100F0000D491862F61E00E942F1C8D2D60E00E94FD
:100F10006E1CFF2400E010E0C801B7010E943E1DD6
:100F20008D2D61E00E946E1C8D2D60E00E942F1CB3
:100F300020E233E0492D50E006C02150304019F442
:100F40002DEF3FEF71C0888190E084239523892B9A
:100F5000A1F706C02150304029F42CEF3FEF64C0C8
:100F600020E931E0888190E084239523892B91F357
:100F700020E931E006C02150304019F42BEF3FEF5B
:100F800053C0888190E084239523892BA1F7E0E862
:100F900000E010E080E060E971E040E050E020E92E
:100FA00031E0B8E2F0E9EF2EF1E0FF2EA881A921AF
:100FB00041F5882331F1CB1660F42617370708F482
:100FC000B901A701461B570B56954795569547956E
:100FD00007C0CB01841B950B8217930708F01E2BCB
:100FE0008E2F90E095958795E82F882339F4F501A9
:100FF000E00FF11D10870F5FE0E810E0B15020E92D
:1010000031E02150304019F42EEF3FEF0DC08A2F10
:10101000BB2361F68D2D61E00E942F1C8D2D61E0B8
:101020000E946E1C20E030E0C901DF91CF911F913A
:101030000F91FF90EF90DF90CF90BF90AF909F9077
:1010400008950F931F93CF93DF93EC0141E026E0C7
:101050000E945D078C018885837088879A859378C4
:101060009A8769850E94A424A0E0B0E0BC01CD016C
:101070000E948E262DEC3CEC4CEC5DE30E94442754
:10108000688379838A839B838A858F776B850E94A7
:10109000A424A0E0B0E0BC01CD010E948E262DEC7E
:1010A0003CEC4CEC5DE30E9444279B01AC016C835B
:1010B0007D838E839F838A8587FF07C0DA01C901FC
:1010C000B0588C839D83AE83BF8389859885890FB3
:1010D0009A85890F9B85890F9C85981711F00FEFD2
:1010E0001FEFC801DF91CF911F910F910895FC016F
:1010F0001382128285E892E0918380836483418722
:10110000228780E883870895CF92DF92EF92FF9243
:101110000F931F936C01062F8EE9E82E85E0F82EC1
:10112000C701F60164810E94811710E0F6018385F2
:1011300090E0082B192BC701602F0E940D18C701E2
:101140000E9450181F910F91FF90EF90DF90CF9069
:101150000895FF920F931F938C01F62E60610E94F9
:10116000840881E090E00E94971D8FEEF822C8016C
:101170006F2D0E94840882E390E00E94971D1F91CA
:101180000F91FF900895FF920F931F938C01F62EFD
:101190000E948408C8016F2D0E94A9081F910F9119
:1011A000FF900895EF92FF920F931F937C01162FEB
:1011B000042F62956F70642B0E94C3081F70012B6F
:1011C000C701602F0E94C3081F910F91FF90EF90FD
:1011D000089540E40E94D20880E090E0089540E045
:1011E0000E94D2080895FC016681862F8460868360
:1011F0006C60CF010E94EF080895DF93CF93CDB7C5
:10120000DEB728970FB6F894DEBF0FBECDBF9C01A6
:10121000FE013196A9E8B2E088E00D90019281507C
:10122000E1F7F9018085841710F4482F4150E42F2D
:10123000F0E0EE0FFF1FEC0FFD1F8181680F60686B
:10124000C9010E94EF0828960FB6F894DEBF0FBEC2
:10125000CDBFCF91DF91089562E00E94EF0880ED4D
:1012600097E00E94971D089561E00E94EF0880EDCD
:1012700097E00E94971D0895CF93DF93EC014230D1
:1012800018F08D8188608D834887222329F04130B2
:1012900019F48D8184608D8380E593EC0E94971D05
:1012A000CE016B850E94840868EE73E080E090E0D8
:1012B0000E943E1DCE0160E00E94C30884E690E0DB
:1012C0000E94971DCE0160E00E94C30884E690E072
:1012D0000E94971DCE0160E00E94C30884E690E062
:1012E0000E94971DCE0160E00E94C30884E690E052
:1012F0000E94971DCE0160E00E94C30886E990E03D
:101300000E94971DCE0162E00E94C3086D81606259
:10131000CE010E94EF0884E08E83CE010E94F30884
:10132000CE010E94340982E08F83CE0166E00E94E4
:10133000EF08CE010E942C09DF91CF9108950F9301
:101340001F938C018EE995E00E946518F8011582C3
:10135000C8016185428520E00E943C091F910F91E0
:1013600008950E949F0908950F931F93CF93DF93D1
:10137000EC018EE995E068E670E00E948B178EE93B
:1013800095E060E00E940D188EE995E00E945018EB
:10139000882319F010921E0311C081E080931E0370
:1013A0008EE995E068E670E047E050E00E94611841
:1013B0008EE995E00E949517079714F480E065C0C8
:1013C0008EE995E00E949E17082F8F7782958F7087
:1013D0001AE0819FC0011124202F2F70280F28832D
:1013E0008EE995E00E949E17282F22952F70219F4D
:1013F000900111248F70820F89838EE995E00E94FD
:101400009E17282F2F7322952F70219F9001112452
:101410008F70820F8A838EE995E00E949E17282F95
:1014200022952F70219F900111248F70820F8B8342
:101430008EE995E00E949E17282F22952F70219FFC
:10144000900111248F70820F8C838EE995E00E94A9
:101450009E17282F22952F70219F900111248F70A5
:10146000820F8D838EE995E00E949E17282F2F70A2
:10147000225E82958F70819FC0011124280F2E83D8
:10148000802F8095881F8827881FDF91CF911F911B
:101490000F9108950F931F93DF93CF93CDB7DEB7CE
:1014A00027970FB6F894DEBF0FBECDBF8E010F5F3A
:1014B0001F4FC8010E94B409882329F420E030E0BE
:1014C00040E050E005C0C8010E9486159B01AC01B8
:1014D000B901CA0127960FB6F894DEBF0FBECDBF83
:1014E000CF91DF911F910F9108958EE995E00E94B1
:1014F000651808958FEF8EBD0DB407FEFDCF8EB534
:1015000008958EBD0DB407FEFDCF0895FF920F9391
:101510001F93CF93DF93F82E8B010E940A1DEB01DE
:1015200009C00E940A1D6C1B7D0B0617170710F4DB
:1015300080E005C00E947A0A8F1599F781E0DF915B
:10154000CF911F910F91FF900895FC01938140E08E
:1015500082E002C0880F4F5F891710F44630D1F740
:10156000242F30E0C9019595879580658CBD40FF9B
:1015700002C080E004C080E0463009F081E08DBD0B
:10158000828160E00E946E1C0895DF92EF92FF92CC
:101590000F931F93D62E79018A010E94A50A8FEF1F
:1015A00068E572E00E94860A8D2D80640E94810A9F
:1015B000812F9927AA27BB270E94810AC801AA2741
:1015C000BB270E94810ABB27A12F902F8F2D0E943D
:1015D000810A8E2D0E94810ADD2011F08FEF01C05B
:1015E00085E90E94810A1FEF0E947A0A87FF04C0E2
:1015F000112311F01150F8CF1F910F91FF90EF9030
:10160000DF900895BF92CF92DF92EF92FF920F93F7
:101610001F938C01B62E69017A0167E320E030E068
:1016200040E050E00E94C50AC8016B2DA701960159
:101630000E94C50A1F910F91FF90EF90DF90CF900D
:10164000BF900895FC01828161E00E946E1C8FEFC3
:101650000E94810A0895EF92FF920F931F93CF93F8
:10166000DF93EC017B018A018EEF6CE271E00E9456
:10167000860A882329F485E08883CE010E94220B04
:101680008FEF8EBD20E030E09FEF0BC00DB407FE62
:10169000FDCF8EB5F701E20FF31F80839EBD2F5F54
:1016A0003F4F2017310790F30DB407FEFDCF0E9486
:1016B0007A0ACE010E94220B81E0DF91CF911F9127
:1016C0000F91FF90EF900895CF92DF92EF92FF92EB
:1016D0000F931F93CF93DF93EC017A018B01690184
:1016E000E9E0EE0CFF1C001F111FEA95D1F761E144
:1016F000A80197010E94C50A882339F084E08883F5
:10170000CE010E94220B80E006C0CE01B60140E06F
:1017100052E00E942B0BDF91CF911F910F91FF9010
:10172000EF90DF90CF900895CF92DF92EF92FF92EB
:101730000F931F93CF93DF93EC017A018B01690123
:10174000F9E0EE0CFF1C001F111FFA95D1F768E1BC
:10175000A80197010E94C50A882311F083E023C0E5
:101760008EEF8EBD20E030E00DB407FEFDCFF60118
:10177000E20FF31F80818EBD2F5F3F4F82E020304C
:10178000380791F70DB407FEFDCF8FEF0E94810A55
:101790008FEF0E94810A0E947A0A982F8F718530FC
:1017A00041F0998386E08883CE010E94220B80E07D
:1017B00010C08FEF68E572E00E94860A882329F442
:1017C00087E08883CE010E94220BCE010E94220B6B
:1017D00081E0DF91CF911F910F91FF90EF90DF900B
:1017E000CF900895EF92FF921F93CF93DF93EC0178
:1017F0004B836A8318820E940A1D7B018A8161E003
:101800000E942F1C8A8161E00E946E1C8CE060E0C7
:101810000E942F1C8AE061E00E942F1C8AE061E098
:101820000E946E1C8BE061E00E942F1C8DE061E045
:101830000E942F1C83E58CBD10E08FEF0E94810A6F
:101840001F5F1A30D1F78A8160E00E946E1C0AC0C7
:101850000E940A1D6E197F09615D774018F0198397
:1018600081E015C0CE0160E020E030E040E050E0D3
:101870000E94C50A182F813059F70FC00E940A1D17
:101880006E197F09615D774040F0198382E088839B
:10189000CE010E94220B80E00FC0CE0169E220E061
:1018A00030E040E050E00E94020B182F882331F70F
:1018B000CE010E94220B81E0DF91CF911F91FF901A
:1018C000EF900895CF93DF93EC01DB0180E090E08F
:1018D00020E2FD01E80FF91F208301968B3091056E
:1018E000C1F757E040E021C02E3219F08AEE90E0B7
:1018F00007C05A3019F15AE048E017C03217F1F02A
:10190000FC01019634913323C9F75417B8F0213202
:10191000A8F02F3798F4822F81568A3108F420528C
:10192000FD01E40FF11D20834F5F29912223E1F691
:1019300090E08C91803219F091E001C090E0892F05
:10194000DF91CF91089580913605882399F14091D8
:1019500072025091730260917402709175028091CD
:1019600034039091350326E333E00E94940B8823DF
:1019700019F1409137055091380560913905709102
:101980003A05411551056105710591F080913403C7
:101990009091350326E333E00E94940B882361F095
:1019A00010923705109238051092390510923A05B9
:1019B0001092360581E0089580E00895DF92EF925D
:1019C000FF920F931F937B018C01D42E80917202A2
:1019D00090917302A0917402B09175028E159F05CB
:1019E000A007B107C1F00E94A30C8823E1F0809109
:1019F000340390913503B801A70126E333E00E9438
:101A0000640B882381F0E0927202F09273020093DB
:101A1000740210937502DD2011F481E005C081E0AD
:101A20008093360501C080E01F910F91FF90EF90E9
:101A3000DF9008956F927F928F929F92AF92BF92A4
:101A4000CF92DF92EF92FF920F931F93CF93DF938A
:101A5000162F653008F0E3C090933503809334036C
:101A6000662321F4EE24FF24870117C060E070E0B4
:101A700080E090E040E00E94DE0C882309F4CFC0B3
:101A8000E12FF0E0A4E0EE0FFF1FAA95E1F7E4518B
:101A9000FB4FE080F18002811381C801B70140E073
:101AA0000E94DE0C882309F4BAC080913405853584
:101AB00009F0B5C0809135058A3A09F0B0C0809030
:101AC0004603809220039090430390922103C0919B
:101AD0004C03D0914D03D0932503C0932403609110
:101AE000470370914803709323036093220360902F
:101AF000440370904503930140E050E02E0D3F1DDC
:101B0000401F511F209328033093290340932A0339
:101B100050932B03882D90E0FC01EC9FC001ED9FBA
:101B2000900DFC9F900D1124A0E0B0E0820F931F58
:101B3000A41FB51F80932C0390932D03A0932E0315
:101B4000B0932F03F5E0660F771FFA95E1F7615028
:101B50007E4F672F772766959B0140E050E0280F66
:101B6000391F4A1F5B1F209330033093310340938A
:101B70003203509333038091490390914A030097B5
:101B800021F05C01CC24DD2408C0A0905603B09065
:101B90005703C0905803D0905903E21AF30A040B7C
:101BA000150BEA0CFB1C0C1D1D1D292D30E040E01F
:101BB00050E0C801B7010E944429A90130932703CE
:101BC00020932603809141039091420380509240DC
:101BD00031F5209721F12FE0453F520700F181E0D8
:101BE000A81680E0B80680E8C80680E0D806B8F4F9
:101BF0006728A9F0882099F0852F9927C817D90759
:101C000070F0992061F0292D30E0C90101978223FD
:101C10009323892B21F481E080931F0301C080E08E
:101C2000DF91CF911F910F91FF90EF90DF90CF90B8
:101C3000BF90AF909F908F907F906F900895CF92BC
:101C4000DF92EF92FF920F931F93CF93DF93EC01FC
:101C50006B018230910508F450C080912603909169
:101C6000270301968C179D0708F447C08D2F9927ED
:101C70007C0100E010E08091280390912903A0915D
:101C80002A03B0912B03E80EF91E0A1F1B1F809137
:101C9000720290917302A0917402B0917502E816DD
:101CA000F9060A071B0739F0C801B70140E00E9496
:101CB000DE0C882311F1D070CC0FDD1FCA5CDC4F25
:101CC000D982C88281E080933605809120038230DA
:101CD00090F08091240390912503A0E0B0E0E80EFD
:101CE000F91E0A1F1B1FE0923705F092380500937A
:101CF000390510933A0581E001C080E0DF91CF9172
:101D00001F910F91FF90EF90DF90CF9008950F9368
:101D10001F93CF93DF93EC018B0180912603909169
:101D2000270301968C179D0788F18D2F99279C0119
:101D300040E050E08091280390912903A0912A036C
:101D4000B0912B03280F391F4A1F5B1F809172022D
:101D500090917302A0917402B0917502281739070F
:101D60004A075B0739F0CA01B90140E00E94DE0C66
:101D7000882361F0D070CC0FDD1FCA5CDC4F8881F6
:101D80009981F8019183808381E001C080E0DF9137
:101D9000CF911F910F9108958F929F92AF92BF9212
:101DA000CF92DF92EF92FF920F931F93CF93DF9327
:101DB000EC017A018B018D8190E083709070892B0A
:101DC00009F468C08A859B85AC85BD858417950715
:101DD000A607B70708F45EC06BC01F861E86188A68
:101DE000198A1A8A1B8A54C080912103882E99244B
:101DF000AA24BB24C801B7016150704080409040C4
:101E000049E096958795779567954A95D1F7A5010D
:101E100094010E9444296901688979898A899B898A
:101E2000E616F7060807190728F061157105810500
:101E3000910529F4888599859F878E871DC06150FB
:101E400070408040904039E09695879577956795EA
:101E50003A95D1F7A50194010E944429C21AD30AE8
:101E60000BC08E859F85B5010E94870E0894C1081E
:101E7000D108882331F40EC02EE0A22EB12CAC0E76
:101E8000BD1EC114D10469F7E88AF98A0A8B1B8B3D
:101E900081E001C080E0DF91CF911F910F91FF9011
:101EA000EF90DF90CF90BF90AF909F908F9008956C
:101EB000411551056105710509F096CF8ECFEF925E
:101EC000FF920F931F93DF93CF9300D0CDB7DEB770
:101ED0008B017E010894E11CF11CC801B7010E942E
:101EE000870E882379F0C80160E070E00E941F0E21
:101EF000882341F009811A818FEF083F180768F3A2
:101F000081E001C080E00F900F90CF91DF911F9191
:101F10000F91FF90EF900895AF92BF92CF92DF9212
:101F2000EF92FF920F931F93DF93CF9300D0CDB723
:101F3000DEB76C01FC01068517850115110511F44A
:101F400001E010E0EE24FF245E010894A11CB11C06
:101F50008091260390912703E816F90690F58017E3
:101F6000910710F401E010E00F5F1F4FC801B501A9
:101F70000E94870E882329F189819A81892B21F07B
:101F80000894E11CF11CE4CFC8016FEF7FEF0E94C1
:101F90001F0E8823B1F0F60186859785009731F0F2
:101FA000B8010E941F0E882339F40BC0F601858109
:101FB0008068858311870087F6011787068781E08F
:101FC00001C080E00F900F90CF91DF911F910F9192
:101FD000FF90EF90DF90CF90BF90AF9008954F9219
:101FE0005F926F927F928F929F92AF92BF92CF92A9
:101FF000DF92EF92FF920F931F93CF93DF93EC0149
:102000004A018D8180FFA2C0E888F9880A891B896E
:102010002A853B854C855D85C401A0E0B0E08E0D2E
:102020009F1DA01FB11F281739074A075B0718F427
:1020300049018E189F085B01EEE06E2E712C6C0E2C
:102040007D1E6401412C72E0572E7AC0288939899F
:102050004A895B89DA01C90169E0B695A795979528
:1020600087956A95D1F710912103115018235FEFDE
:10207000E52E51E0F52EE222F3221123E1F4E114E2
:10208000F104C9F48E859F85009729F48885998588
:102090009F878E8706C0B3010E94870E882309F4AC
:1020A00055C08E859F858230910508F44FC0885FAA
:1020B0009F4F08F04BC06E857F856250704080E076
:1020C00090E02091210330E040E050E00E9412298E
:1020D000209130033091310340913203509133030A
:1020E000620F731F841F951F610F711D811D911D4C
:1020F00040E00E94DE0C882349F1C2018E199F093D
:1021000086018C159D0508F48C0197012A5C3C4FD3
:10211000C501B901A8010E94E500980140E050E026
:1021200088899989AA89BB89820F931FA41FB51F2B
:10213000888B998BAA8BBB8BA00EB11EC01AD10ABB
:10214000C114D10409F082CFA40102C04FEF5FEFA8
:10215000CA01DF91CF911F910F91FF90EF90DF9017
:10216000CF90BF90AF909F908F907F906F905F9037
:102170004F900895DF93CF930F92CDB7DEB7BE0196
:102180006F5F7F4F41E050E00E94EF0F019719F021
:102190002FEF3FEF03C08981282F30E0C9010F9056
:1021A000CF91DF910895CF93DF93EC01E62F8091DB
:1021B000220390912303C817D90720F5BE01A4E09C
:1021C00076956795AA95E1F780E090E020912C0341
:1021D00030912D0340912E0350912F03620F731FF6
:1021E000841F951F4E2F0E94DE0C882359F0BE01DC
:1021F0006F707070F5E0660F771FFA95E1F76A5C13
:102200007C4F02C060E070E0CB01DF91CF91089578
:102210000F931F93CF93DF938C01FC01858187FF80
:102220002BC08681978161E00E94D310EC0100975A
:1022300011F480E023C0F80182859385A485B585DB
:102240008C8F9D8FAE8FBF8F808591859B8F8A8F5E
:10225000E0913B05F0913C05309751F0BE016A5E7C
:102260007F4FCE0148960995888D998D9B8B8A8BDF
:10227000F80185818F7785830E94A30CDF91CF9130
:102280001F910F9108958F929F92AF92BF92CF921C
:10229000DF92EF92FF920F931F93DF93CF9300D0C3
:1022A000CDB7DEB78C016A017B01FC01858181FF1E
:1022B00066C082859385A485B58584179507A60792
:1022C000B70708F45CC00097A105B10511F481E0DF
:1022D00057C0F80180889188A288B38841155105BC
:1022E0006105710571F460857185C8010E945F0FF9
:1022F000882309F444C0F8011186108617861686D3
:1023000024C0C8010E94CC0E8823C9F1F80186853B
:102310009785BE016F5F7F4F0E94870E882379F1FA
:1023200089819A81885F9F4F80F4F801868597851F
:102330006FEF7FEF0E941F0E882309F169817A8178
:10234000C8010E945F0F8823D1F0F801C286D386AE
:10235000E486F586858180688583C8010E9408111E
:10236000882369F0B701A6018C149D04AE04BF0454
:1023700010F4B501A401C8010E94CC0E01C080E098
:102380000F900F90CF91DF911F910F91FF90EF90E1
:10239000DF90CF90BF90AF909F908F900895AF92B5
:1023A000BF92CF92DF92FF920F931F93CF93DF9351
:1023B0008C016B01F42E80911F03882309F44FC018
:1023C000D80115968C9190E083709070892B09F05C
:1023D00046C050C0C1FF43C0C60160E00E94D31098
:1023E000FC010097E1F180818823C9F1853EB9F1B4
:1023F0008385282F30E0C90188719070892B79F589
:1024000020FF04C0C271D070CD2B49F5E8011F86B2
:102410001E86D80150961D921D921D921C925397B4
:102420001796DC92CE921697848D958DA68DB78DDA
:102430008A879B87AC87BD87828D938D9987888794
:10244000EFE0FE22FD82AB2811F481E009C0C80153
:1024500040E050E060E070E00E94431101C080E085
:10246000DF91CF911F910F91FF90DF90CF90BF90A0
:10247000AF900895C42FD0E080E1A82EB12CAC22FB
:10248000BD2244FDA7CFA8CF0F931F938C010E94BC
:102490000811F80115821F910F9108952F923F9214
:1024A0004F925F926F927F929F92AF92BF92CF9224
:1024B000DF92EF92FF920F931F93DF93CF9300D0A1
:1024C000CDB7DEB76C01162F072F1A01FC018581ED
:1024D00081FFF3C082FF13C04285538564857585F3
:1024E00080899189A289B38984179507A607B707C0
:1024F00031F0C6010E94CC0E882309F4DEC0812F82
:10250000902F9C0129013101A9C0DA01C90109E01C
:10251000B695A795979587950A95D1F79090210341
:102520009A9498221FEFA12E11E0B12EA222B3227D
:10253000992029F5A114B10411F5F6018685978536
:10254000009779F0BE016F5F7F4F0E94870E88234E
:1025500009F4B3C089819A81FFEF883F9F0760F03B
:1025600005C0F60180859185009731F4C6010E946F
:102570008C0F882321F4A1C0F60197878687F60186
:10258000668577856250704080E090E0209121035D
:1025900030E040E050E00E9412297B018C018091E4
:1025A000300390913103A0913203B0913303E80ED0
:1025B000F91E0A1F1B1FE90CF11C011D111DA1149E
:1025C000B104F9F4F6012089318942895389828561
:1025D0009385A485B585281739074A075B0788F0D6
:1025E0000E94A30C882309F468C0E0927202F09262
:1025F0007302009374021093750281E08093360594
:1026000008C0C801B70141E00E94DE0C882309F42C
:1026100057C080E092E08A199B09830186159705CF
:1026200008F48C0195012A5C3C4FC901B201A80154
:102630000E94E500980140E050E0F6018089918910
:10264000A289B389820F931FA41FB51F808B918B22
:10265000A28BB38B601A710A400E511EF6012089BD
:102660003189428953896114710409F04ECF828502
:102670009385A485B58582179307A407B50728F429
:1026800022873387448755870AC080913B05909104
:102690003C05892B39F02114310421F0F6018581A4
:1026A00080688583F601858183FF05C0C6010E948D
:1026B0000811882311F0A10105C081E0F60184838F
:1026C0004FEF5FEFCA010F900F90CF91DF911F91F5
:1026D0000F91FF90EF90DF90CF90BF90AF909F90C1
:1026E0007F906F905F904F903F902F900895DF9371
:1026F000CF930F92CDB7DEB76983BE016F5F7F4F77
:1027000041E050E00E944E1220E030E0019711F4C9
:1027100021E030E0C9010F90CF91DF9108959F92A1
:10272000AF92BF92CF92DF92EF92FF920F931F93DF
:10273000DF93CF93CDB7DEB72B970FB6F894DEBFFC
:102740000FBECDBF5C01942E80911F03882309F436
:102750007EC0F501858190E083709070892B09F02F
:1027600076C088C0C70160E00E94D310FC010097CA
:1027700009F46DC08081882311F0853E29F417FD8E
:102780008701882389F41AC0C601BF014BE050E0DD
:102790000E94D800009741F4892D807C803C09F488
:1027A00056C0C501B7014FC00894E11CF11C8091CF
:1027B000220390912303E816F906A0F217FD47C003
:1027C000892D8274823409F042C0F02EE12EC801B6
:1027D00061E00E94D3108C010097C9F180E2F801FA
:1027E00011928A95E9F7D801FE0131968BE00190AC
:1027F0000D928150E1F7E0913B05F0913C05309757
:1028000039F0B801625F7F4FC8014096099509C051
:1028100081E298E2F801918B808B80E098E09787C5
:102820008687F80180899189938B828B918F808F25
:1028300086859785978B868B0E94A30C882339F019
:10284000C5016F2D7E2D492D0E94CF1101C080E062
:102850002B960FB6F894DEBF0FBECDBFCF91DF91A0
:102860001F910F91FF90EF90DF90CF90BF90AF90AE
:102870009F900895CB016E010894C11CD11CB60134
:102880000E94620C882319F30FEF1FEFEE24FF2440
:102890008ECF8F929F92AF92BF92CF92DF92EF92A4
:1028A000FF920F931F93CF93DF937B018C01EA017B
:1028B0002CE330E040E050E00E9444296883C801E6
:1028C000B7012CE330E040E050E00E944429122F91
:1028D000032FF42EE52E622F732F842F952F2CE3D8
:1028E00030E040E050E00E9444296983612F702F5E
:1028F0008F2D9E2D2CE330E040E050E00E944429D3
:10290000122F032FF42EE52E622F732F842F952F75
:1029100028E130E040E050E00E9444296A83612FC2
:10292000702F8F2D9E2D28E130E040E050E00E9476
:10293000442979018A01C801B7016C5F7F4F8F4F2D
:102940009F4F27E030E040E050E00E9444296F5F55
:102950006B8320E0AA24BB24650101C02F5F822E77
:102960009924F401EE54F84FCF0183709070892BB5
:1029700099F4CF0164E670E00E943129892B39F483
:10298000CF0160E971E00E943129892B29F48EE69C
:1029900091E0A0E0B0E004C08DE691E0A0E0B0E0FE
:1029A000A80EB91ECA1EDB1EC501A0E0B0E0E816E5
:1029B000F9060A071B0790F62E83F401EE54F84F30
:1029C00083E0882E912C8E229F228114910499F409
:1029D000CF0164E670E00E943129892B39F4CF01E0
:1029E00060E971E00E943129892B29F48EE691E09B
:1029F000A0E0B0E004C08DE691E0A0E0B0E0A81A4D
:102A0000B90ACA0ADB0A980187010A191B092C09AD
:102A10003D09CF0164E670E00E9431297C01CF01BD
:102A200060E971E00E943129AC01E9E9F2E060E07F
:102A3000613051F48114910449F4E114F10441F43A
:102A40004115510529F002C0808103C08CE101C00D
:102A50008DE190E0A0E0B0E0081719072A073B07D6
:102A600040F0081B190B2A0B3B0B6F5F31966C3043
:102A7000F9F66F5F6D83802F8F5F8C83DF91CF912D
:102A80001F910F91FF90EF90DF90CF90BF90AF908C
:102A90009F908F900895EF92FF920F931F937B0169
:102AA0008C018091540590915505A0915605B091E7
:102AB0005705E816F9060A071B0771F0C801B701A8
:102AC00049E455E00E944914E0925405F0925505FE
:102AD00000935605109357051F910F91FF90EF90AB
:102AE00008950E944B1520914F0530E02E54384F29
:102AF000C90108950E944B1580914E0590E00895FC
:102B00000E944B1580914D0590E008954F925F9281
:102B10006F927F928F929F92AF92BF92CF92DF92ED
:102B2000EF92FF920F931F93CF93DF934C01DC0141
:102B300016961C91612F70E080E090E020E833E36E
:102B400041EE51E00E9412295B016C0122EB37E05B
:102B5000E12FF0E0EE54F84F1DC0C9018370907072
:102B6000892BB1F4C90164E670E00E943129892BF8
:102B700039F4C90160E971E00E943129892B41F4DF
:102B800080E891E5A1E0B0E0A80EB91ECA1EDB1EE8
:102B90002F5F3F4F2E173F0701F7D40115968C91F9
:102BA000482E5524C90164E670E00E9431297C0159
:102BB000C90160E971E00E9431298C01C1E0D0E0D7
:102BC00093E0692E712C6222732227C0C230D10596
:102BD00091F46114710479F4E114F10419F401150C
:102BE000110549F480E89BE3A6E2B0E0A80EB91E07
:102BF000CA1EDB1E11C0FE01E856FD4F608170E069
:102C000080E090E020E831E541E050E00E941229A8
:102C1000A60EB71EC81ED91E2196C415D505B4F23E
:102C2000D40112966C9170E080E090E020E13EE0EB
:102C300040E050E00E9412297B018C01F401618187
:102C400070E080E090E02CE330E040E050E00E9453
:102C50001229E60EF71E081F191FD4018C91E80EE9
:102C6000F11C011D111D14966C9170E061507040B3
:102C7000882777FD8095982F20E831E541E050E0E6
:102C80000E941229E60EF71E081F191FEA0CFB1CF2
:102C90000C1D1D1DB701C801DF91CF911F910F9130
:102CA000FF90EF90DF90CF90BF90AF909F908F906C
:102CB0007F906F905F904F9008956093760270932D
:102CC0007702809378029093790220913F053091AA
:102CD00040054091410550914205260F371F481F7E
:102CE000591F209343053093440540934505509365
:102CF0004605089560933F05709340058093410514
:102D000090934205209176023091770240917802AB
:102D100050917902260F371F481F591F20934305F2
:102D200030934405409345055093460582E090E07A
:102D300090934805809347050E940A1D60935005B3
:102D40007093510580935205909353050895EF9227
:102D5000FF920F931F931CC02F5F3F4F4F4F5F4F4A
:102D600020933F0530934005409341055093420521
:102D700088EE93E0A0E0B0E0E80EF91E0A1F1B1FEA
:102D8000E0925005F09251050093520510935305BF
:102D90000E940A1DE0905005F090510500915205E7
:102DA000109153056E197F09800B910B20913F05FF
:102DB000309140054091410550914205685E734055
:102DC0008040904048F68091430590914405A09141
:102DD0004505B0914605281739074A075B07C8F132
:102DE000E0913D05F0913E05309799F10995611507
:102DF00071058105910519F00E947A162AC080910B
:102E0000760290917702A0917802B0917902209198
:102E10003F05309140054091410550914205820F98
:102E2000931FA41FB51F8093430590934405A0935F
:102E30004505B093460520E030E08091470590912C
:102E40004805892B11F021E030E0309348052093AC
:102E5000470560913F057091400580914105909133
:102E600042051F910F91FF90EF90089590933E05BA
:102E700080933D0580913F0590914005A0914105CB
:102E8000B09142058093430590934405A093450576
:102E9000B09346050E94A71608950E94A716809138
:102EA00047059091480508950E94A7160E94711544
:102EB00008950E94A7160E944B1580914E0590E040
:102EC00008950E94A7160E944B1580914D0590E031
:102ED00008950E94A7160E944B158091490590E025
:102EE00008950E94A7160E944B1580914A0590E014
:102EF00008950E94A7160E944B1580914B0590E003
:102F0000089581E080939D0560937A0510929B055A
:102F100010929C05089581E080939D0560937A0549
:102F200010929B0510929C0508952091790530E040
:102F300080917805281B3109C901089540917805D1
:102F400080917905481718F02FEF3FEF0AC0E42F62
:102F5000F0E0E85AFA4F8081282F30E04F5F40932D
:102F60007805C9010895E091780580917905E81701
:102F700018F0EFEFFFEF06C0F0E0E85AFA4F80815B
:102F8000E82FF0E0CF01089508951092A105109266
:102F9000A00588EE93E0A0E0B0E08093A2059093B6
:102FA000A305A093A405B093A50589EA92E09093A8
:102FB0009F0580939E050895CF92DF92EF92FF9236
:102FC0000F931F93CF93DF937C016B018A01809154
:102FD0009D058823A1F0C0E0D0E00DC0D701ED91A0
:102FE000FC91D601AC0FBD1F0190F081E02DC7010F
:102FF0006C9109952196C017D10780F304C0CB01CD
:10300000642F0E940E19C801DF91CF911F910F917B
:10301000FF90EF90DF90CF900895DF93CF930F92C2
:10302000CDB7DEB7FC01698380919D058823C9F087
:1030300080919C05803238F081E090E09383828318
:1030400020E030E015C080919B05E82FF0E0E558C6
:10305000FA4F998190838F5F80939B0580939C05A5
:1030600005C0CE01019661E00E940E1921E030E01A
:10307000C9010F90CF91DF9108950F93062F809192
:103080007A056BE775E040919C0521E00E94B91834
:1030900010929B0510929C0510929D050F9108952A
:1030A00061E00E943D180895413208F040E2862F09
:1030B00068E575E00E947018109278058093790594
:1030C000089521E00E9454180895109278051092F6
:1030D000790510929B0510929C050E94BA1A0895DA
:1030E000382F413210F040E042C08091AA05882379
:1030F000E1F791E09093AA052093AC058FEF8093C0
:1031000017061092D20541504093D3054F5F90931C
:10311000AB058091AB05330F832B8093AB0580917A
:10312000AD05813041F41092AD058091AB058093DF
:10313000BB0085EC01C085EE8093BC008091AA05A0
:103140008130E1F38091D205841710F44091D205CB
:1031500020E030E00AC0FB01E20FF31FD901AE54BA
:10316000BA4F8C9180832F5F3F4F2417A0F3842F99
:1031700008950F931F93582F122F413210F081E0C2
:103180004AC08091AA058823E1F782E08093AA05CE
:103190000093AC058FEF809317061092D2054093F1
:1031A000D305A2EBB5E0FB0102C081918D938E2F78
:1031B000861B8417D0F31092AB058091AB05550F99
:1031C000852B8093AB058091AD05813041F4109241
:1031D000AD058091AB058093BB0085EC01C085EE09
:1031E0008093BC00112321F08091AA058230E1F385
:1031F000809117068F3F11F480E00DC08091170673
:10320000803211F482E007C080911706803311F0FC
:1032100084E001C083E01F910F910895482F61322F
:1032200010F081E008958091AA05843011F082E0C9
:1032300008956093F505A4EDB5E0842F9C01F90194
:1032400002C081918D938E2F841B8617D0F380E06E
:1032500008951F920F920FB60F9211242F933F9350
:103260004F935F936F937F938F939F93AF93BF938E
:10327000EF93FF938091B90090E0887F9070803643
:10328000910509F4F2C081369105CCF5883291059B
:1032900009F47BC089329105B4F48031910509F4B9
:1032A0006FC0813191053CF4009709F447C108973C
:1032B00009F04FC165C08831910509F466C0809757
:1032C00009F047C182C08034910509F4A4C081345B
:1032D000910544F48033910509F482C0C89709F040
:1032E00038C189C08035910509F489C088359105B8
:1032F00009F496C08834910509F02BC1AEC0883915
:10330000910509F413C189399105ECF488379105C9
:1033100009F4ABC0893791054CF48836910509F45E
:10332000A4C08037910509F014C19FC08838910569
:1033300009F4FCC08039910509F49DC080389105DD
:1033400009F007C198C0803B910509F4C6C0813BD4
:1033500091054CF4803A910509F49FC0883A910593
:1033600009F0F7C0BAC0803C910509F4E3C0883C7D
:10337000910509F4DFC0883B910509F0EAC0C2C09D
:103380008091AB058093BB00CFC09091D205809116
:10339000D305981768F49091D205E92FF0E0EE5428
:1033A000FA4F80818093BB009F5F9093D205BCC091
:1033B0008091AC05882309F44BC085ED8093BC0057
:1033C0008091BC0084FDFCCFC2C080E280931706D0
:1033D00085ED8093BC008091BC0084FDFCCFB7C01C
:1033E00080E38093170685ED8093BC008091BC003C
:1033F00084FDFCCFACC088E3809317069BC080910E
:10340000D2059091BB00E82FF0E0EE54FA4F908384
:103410008F5F8093D2059091D2058091D30582C0B1
:103420008091D2059091BB00E82FF0E0EE54FA4F66
:1034300090838F5F8093D2058091AC05882341F003
:1034400085ED8093BC008091BC0084FDFCCF7FC0E3
:1034500081E08093AD0584EA6EC085ED8093BC0069
:103460008091BC0084FDFCCF72C083E08093AA05EC
:103470001092160659C080911606803208F056C088
:10348000809116069091BB00E82FF0E0EA50FA4FC9
:1034900090838F5F8093160647C080911606803216
:1034A00030F4E0911606F0E0EA50FA4F108285ED14
:1034B0008093BC008091BC0084FDFCCF1092AA05D3
:1034C00060911606E091B005F091B10586EF95E0A8
:1034D00070E00995109216062DC084E08093AA052D
:1034E0001092F4051092F505E091AE05F091AF054C
:1034F00009958091F505882329F481E08093F505ED
:103500001092D4059091F405E92FF0E0EC52FA4FB7
:1035100080818093BB009F5F9093F4059091F405A8
:103520008091F505981710F485EC01C085E880932B
:10353000BC000FC085EC8093BC0009C01092170638
:1035400085ED8093BC008091BC0084FDFCCF10927F
:10355000AA05FF91EF91BF91AF919F918F917F91BC
:103560006F915F914F913F912F910F900FBE0F90F0
:103570001F9018951092AA0581E08093AC051092D7
:10358000AD0582E161E00E946E1C83E161E00E9472
:103590006E1CE9EBF0E080818E7F808380818D7FDF
:1035A000808388E48093B80085E48093BC0008950C
:1035B000982F8E3008F09E50977080917A028295F5
:1035C000880F880F807C892B80937C0080917A0003
:1035D000806480937A0080917A0086FDFCCF2091F0
:1035E000780040917900942F80E030E0282B392B2F
:1035F000C90108950F931F93CF93DF93BC018230CD
:10360000910510F462E070E0E091CD06F091CE06F5
:10361000A0E0B0E040E050E024C0808191818617B6
:103620009707D0F08617970771F4828193811097DE
:1036300029F013969C938E9312972CC09093CE06EC
:103640008093CD0627C04115510519F084179507C1
:1036500018F4EF018D01AC01DF01828193819C019F
:10366000F9013097D1F641155105F9F0CA01861BD1
:10367000970B8430910580F48A819B810115110597
:1036800021F0F8019383828304C09093CE06809347
:10369000CD06FE01329645C0FE01E80FF91F619389
:1036A00071930297998388833CC08091CB06909157
:1036B000CC06892B41F480917D0290917E029093FB
:1036C000CC068093CB0640917F0250918002411539
:1036D000510541F44DB75EB780917B0290917C0219
:1036E000481B590B2091CB063091CC062417350787
:1036F000B0F4CA01821B930B8617970780F0AB01C9
:103700004E5F5F4F8417950750F0420F531F509341
:10371000CC064093CB06F9016193719302C0E0E0BF
:10372000F0E0CF01DF91CF911F910F910895CF93DA
:10373000DF939C01009709F48FC0EC0122971B8254
:103740001A826091CD067091CE066115710581F4E3
:1037500088819981820F931F2091CB063091CC06EE
:103760002817390739F5D093CC06C093CB0674C01F
:10377000DB0140E050E0AC17BD0708F1BB83AA8332
:10378000FE0121913191E20FF31FAE17BF0779F4CB
:103790008D919C911197280F391F2E5F3F4F3983D0
:1037A000288312968D919C9113979B838A83411550
:1037B000510571F4D093CE06C093CD064DC012963C
:1037C0008D919C911397AD01009711F0DC01D3CF3F
:1037D000DA011396DC93CE931297FA01219131917D
:1037E000E20FF31FCE17DF0769F488819981280F54
:1037F000391F2E5F3F4FFA01318320838A819B81DD
:1038000093838283E0E0F0E0DB0112968D919C913E
:103810001397009719F0BC01FD01F6CFAB014E5F85
:103820005F4FDB018D919C91840F951F2091CB06FA
:103830003091CC062817390779F4309729F4109283
:10384000CE061092CD0602C0138212824250504022
:103850005093CC064093CB06DF91CF910895CF9340
:10386000DF93482F50E0CA01845D9E4FFC013491E4
:10387000485E5E4FFA018491882369F190E0880FD9
:10388000991FFC01E650FF4FA591B491FC01EC5F3C
:10389000FE4FC591D491662351F42FB7F8948C91C3
:1038A000932F909589238C93888189230BC0623054
:1038B00061F42FB7F8948C91932F909589238C9372
:1038C0008881832B88832FBF06C09FB7F8948C9183
:1038D000832B8C939FBFDF91CF910895482F50E0A9
:1038E000CA01805C9E4FFC012491CA01845D9E4FF9
:1038F000FC019491485E5E4FFA013491332309F440
:1039000040C0222351F1233071F0243028F42130BB
:10391000A1F0223011F514C02630B1F02730C1F0EB
:103920002430D9F404C0809180008F7703C0809147
:1039300080008F7D8093800010C084B58F7702C097
:1039400084B58F7D84BD09C08091B0008F7703C09E
:103950008091B0008F7D8093B000E32FF0E0EE0FF8
:10396000FF1FEC5FFE4FA591B4912FB7F89466232B
:1039700021F48C919095892302C08C91892B8C9392
:103980002FBF08951F920F920FB60F9211242F93FD
:103990003F938F939F93AF93BF9380911C06909119
:1039A0001D06A0911E06B0911F06309120060196BB
:1039B000A11DB11D232F2D5F2D3720F02D5701960E
:1039C000A11DB11D2093200680931C0690931D0617
:1039D000A0931E06B0931F068091180690911906B9
:1039E000A0911A06B0911B060196A11DB11D8093EE
:1039F000180690931906A0931A06B0931B06BF9160
:103A0000AF919F918F913F912F910F900FBE0F908B
:103A10001F9018958FB7F89420911C0630911D06C1
:103A200040911E0650911F068FBFB901CA0108952B
:103A30009FB7F894209118063091190640911A0604
:103A400050911B0686B5A89B06C08F3F21F02F5FC3
:103A50003F4F4F4F5F4F9FBF542F432F322F22278F
:103A6000280F311D411D511D82E0220F331F441FBD
:103A7000551F8A95D1F7B901CA0108959B01AC0180
:103A80007FB7F8948091180690911906A0911A06B4
:103A9000B0911B0666B5A89B05C06F3F19F0019653
:103AA000A11DB11D7FBFBA2FA92F982F8827860F80
:103AB000911DA11DB11D62E0880F991FAA1FBB1F98
:103AC0006A95D1F7BC012DC0FFB7F8948091180614
:103AD00090911906A0911A06B0911B06E6B5A89B15
:103AE00005C0EF3F19F00196A11DB11DFFBFBA2F10
:103AF000A92F982F88278E0F911DA11DB11DE2E0DF
:103B0000880F991FAA1FBB1FEA95D1F7861B970B39
:103B1000885E9340C8F22150304040405040685188
:103B20007C4F211531054105510571F60895019726
:103B300039F0880F991F880F991F02970197F1F7A5
:103B40000895789484B5826084BD84B5816084BD15
:103B500085B5826085BD85B5816085BDEEE6F0E006
:103B6000808181608083E1E8F0E010828081826062
:103B70008083808181608083E0E8F0E080818160E3
:103B80008083E1EBF0E0808184608083E0EBF0E013
:103B9000808181608083EAE7F0E0808184608083B7
:103BA0008081826080838081816080838081806861
:103BB00080831092C1000895CF92DF92EF92FF921E
:103BC0000F931F93CF93DF937C016B018A01C0E0B9
:103BD000D0E00FC0D6016D916D01D701ED91FC9140
:103BE0000190F081E02DC7010995C80FD91F015040
:103BF00010400115110571F7CE01DF91CF911F9192
:103C00000F91FF90EF90DF90CF900895DC01ED9140
:103C1000FC910190F081E02D09950895EF92FF92BB
:103C20000F931F938C01DC01ED91FC910190F081C9
:103C3000E02D6DE009957C01D801ED91FC9101909A
:103C4000F081E02DC8016AE009959C012E0D3F1D11
:103C5000C9011F910F91FF90EF900895CF93DF93CB
:103C6000EC016115710519F420E030E00FC0DB01B3
:103C70000D900020E9F71197A61BB70BE881F98199
:103C80000280F381E02DAD0109959C01C901DF910E
:103C9000CF9108954F925F927F928F929F92AF92B1
:103CA000BF92CF92DF92EF92FF920F931F93DF9319
:103CB000CF93CDB7DEB7A1970FB6F894DEBF0FBE96
:103CC000CDBF2C01742ECB01223008F42AE019A2BA
:103CD00031E2C32ED12CCC0EDD1E822E9924AA24D3
:103CE000BB24672D752FA50194010E9444297901F9
:103CF0008A01C801B701A50194010E941229472D2C
:103D0000461B0894C108D1084A3014F4405D01C034
:103D1000495CF6014083E114F1040105110521F02D
:103D20007E2C5F2DC801DDCFC201B6010E942E1E80
:103D3000A1960FB6F894DEBF0FBECDBFCF91DF9135
:103D40001F910F91FF90EF90DF90CF90BF90AF90B9
:103D50009F908F907F905F904F900895DC01211588
:103D6000310541F4ED91FC910190F081E02D642F3B
:103D7000099508950E944A1E0895CF92DF92EF920E
:103D8000FF920F931F93CF93DF93EC016A017B01A6
:103D90002115310541F4E881F9810190F081E02D90
:103DA000642F09951FC02A303105D1F477FF17C061
:103DB000E881F9810190F081E02D6DE209958C0197
:103DC00044275527BA014C195D096E097F09CE01B8
:103DD0002AE00E944A1E9801280F391F04C02AE0D9
:103DE0000E944A1E9C01C901DF91CF911F910F9142
:103DF000FF90EF90DF90CF900895EF92FF920F9396
:103E00001F937B019A010027F7FC0095102FB80142
:103E1000A7010E94BD1E1F910F91FF90EF90089582
:103E2000CF92DF92EF92FF920F931F936C017B0171
:103E30009A010027F7FC0095102FB801A7010E94F6
:103E4000BD1E8C01C6010E940E1E080F191FC8015D
:103E50001F910F91FF90EF90DF90CF9008950E94F7
:103E60002E1E08957F928F929F92AF92BF92CF9213
:103E7000DF92EF92FF920F931F93CF93DF934C014A
:103E80007A018B01722ECB01BA01A80197010E9421
:103E9000F327882321F0C40168E572E021C0C0E067
:103EA000D0E057016801E894D7F8C601B5012FEFBB
:103EB0003FEF4FE75FE70E94F327882351F4C601E5
:103EC000B5012FEF3FEF4FE75FE70E94F12518168E
:103ED00014F0C1E0D0E0219739F0C4016CE572E044
:103EE0000E942E1EEC0193C0C801B7012FEF3FEFD7
:103EF0004FE75FE40E944027181654F0C801B7014D
:103F00002FEF3FEF4FE75FEC0E94F125882324F469
:103F1000C40160E672E0E4CFC801B70120E030E000
:103F200040E050E00E94F12587FD03C0C0E0D0E0F2
:103F30000EC0D401ED91FC910190F081E02DC401FF
:103F40006DE20995EC0117FB109517F9109520E02B
:103F500030E040E05FE3DD240BC0CA01B90120E09E
:103F600030E040E251E40E94F5259B01AC01D3947E
:103F7000D71498F3C801B7010E948D255B016C012D
:103F80000E9462267B018C01C401B801A7012AE0CE
:103F900030E00E94AE1EC80FD91F772039F0C4014F
:103FA00064E672E00E942E1EC80FD91FC801B70137
:103FB0000E948E269B01AC01C601B5010E948C2592
:103FC00024C020E030E040E251E40E9444277B011D
:103FD0008C010E945D265B016C01CC24B7FCC0946F
:103FE000DC2CC401B601A5012AE030E00E94BD1E10
:103FF000C80FD91FC601B5010E9490269B01AC01D4
:10400000C801B7010E948C257A947720D1F6CE01A1
:10401000DF91CF911F910F91FF90EF90DF90CF90A4
:10402000BF90AF909F908F907F9008950E94321F15
:104030000895EF92FF920F931F937C010E942E1E12
:104040008C01C7010E940E1E080F191FC8011F9185
:104050000F91FF90EF9008950895CF93DF930E9402
:10406000A11D0E942C200E941B02CAE7D0E20E94E0
:104070008F032097E1F30E947A20F9CF08951F92D1
:104080000F920FB60F9211242F933F934F938F935C
:104090009F93EF93FF938091C00082FD1DC04091DC
:1040A000C60020916106309162062F5F3F4F2F734B
:1040B000307080916306909164062817390771F07B
:1040C000E0916106F0916206EF5DF94F4083309315
:1040D00062062093610602C08091C600FF91EF91B5
:1040E0009F918F914F913F912F910F900FBE0F9005
:1040F0001F901895E091B506F091B606E05CFF4F71
:104100008191919120813181805C9F4F821B930B23
:1041100060E470E00E943129892B11F00E943E205A
:1041200008951F920F920FB60F9211242F933F9371
:104130008F939F93EF93FF932091A5063091A6064E
:104140008091A7069091A8062817390731F480912D
:10415000C1008F7D8093C10014C0E091A706F0914B
:10416000A806EB59F94F20818091A7069091A806E7
:1041700001968F7390709093A8068093A706209362
:10418000C600FF91EF919F918F913F912F910F90DA
:104190000FBE0F901F901895AF92BF92DF92EF92D3
:1041A000FF920F931F93CF93DF93EC017A018B0162
:1041B000DD24403081EE580780E0680780E0780712
:1041C00011F0DD24D39491E0A92EB12CEC89FD8966
:1041D000DD2069F0C50108A002C0880F991F0A946C
:1041E000E2F7808360E079E08DE390E005C0108223
:1041F00060E874E88EE190E0A80197010E944429EC
:10420000215030404040504056954795379527956E
:1042100080E12030380720F0DD2011F0DD24D6CFFA
:10422000E889F9893083EA89FB89208319A2EE891C
:10423000FF89408121E030E0C9010C8C02C0880F69
:10424000991F0A94E2F7482B4083EE89FF89408149
:10425000C9010D8C02C0880F991F0A94E2F7482B00
:104260004083EE89FF894081C9010E8C02C0880F0E
:10427000991F0A94E2F7482B4083EE89FF898081D9
:104280000F8C02C0220F331F0A94E2F720952823D7
:104290002083DF91CF911F910F91FF90EF90DF90DE
:1042A000BF90AF900895CF93DF93DC011E968D9160
:1042B0009C911F97EC01C05CDF4FFC01EE5BFF4F50
:1042C000288139818081918128173907C9F756964D
:1042D000ED91FC915797408121E030E0C9015C9657
:1042E0000C905C9702C0880F991F0A94E2F78095A2
:1042F000842380835696ED91FC9157974081C901A4
:104300005D960C905D9702C0880F991F0A94E2F7A2
:104310008095842380835696ED91FC915797408138
:10432000C9015E960C905E9702C0880F991F0A948F
:10433000E2F78095842380835696ED91FC91579700
:1043400080815F960C905F9702C0220F331F0A9402
:10435000E2F72095282320831C96ED91FC911D9770
:10436000EE5BFF4F8081918192938293DF91CF9199
:104370000895DC011C96ED91FC911D97E05CFF4FC8
:104380008191919120813181805C9F4F821B930BA1
:1043900060E470E00E9431290895DC011C96ED91E3
:1043A000FC911D97E05CFF4F20813181E054F0408B
:1043B000DF01AE5BBF4F8D919C9111972817390794
:1043C00019F42FEF3FEF07C08D919C91E80FF91F73
:1043D0008081282F30E0C9010895DC011C96ED9101
:1043E000FC911D97E05CFF4F20813181E054F0404B
:1043F000DF01AE5BBF4F8D919C9111972817390754
:1044000019F42FEF3FEF10C08D919C911197E80F99
:10441000F91F20818D919C91119701968F73907057
:1044200011969C938E9330E0C9010895DC0191961A
:104430008C919197882339F05496ED91FC91559782
:10444000808186FFF9CF91961C920895CF93DF93D8
:10445000EC01EE85FF85E05CFF4F20813181E05467
:10446000F0402F5F3F4F2F733070DF01AE5BBF4FC7
:104470008D919C91119728173907D1F3E05CFF4F7C
:1044800080819181E054F040E80FF91F6083EE8550
:10449000FF85E05CFF4F31832083EE89FF89208117
:1044A00081E090E00F8C02C0880F991F0A94E2F718
:1044B000282B208381E089A3EC89FD898081806499
:1044C000808381E090E0DF91CF91089581E00895AD
:1044D0001092AC061092AB0688EE93E0A0E0B0E03C
:1044E0008093AD069093AE06A093AF06B093B0064E
:1044F00089EB92E09093AA068093A90681E296E068
:104500009093B6068093B50685E696E09093B8063C
:104510008093B70685EC90E09093BA068093B90635
:1045200084EC90E09093BC068093BB0680EC90E016
:104530009093BE068093BD0681EC90E09093C006F8
:104540008093BF0682EC90E09093C2068093C106F0
:1045500086EC90E09093C4068093C30684E0809339
:10456000C50683E08093C60687E08093C70685E092
:104570008093C80681E08093C90608950F931F9326
:10458000CF93DF93FC018B0141155105F9F06115C3
:104590007105E1F0848195812817390718F0FB0136
:1045A000108214C041505040EC01C21BD30B4C1779
:1045B0005D0708F4EA0160817181620F731FC80111
:1045C000AE010E94F500C00FD11F1882DF91CF917C
:1045D0001F910F9108950F931F93CF93DF93EC01D9
:1045E0008B016F5F7F4F888199810E94AB24009778
:1045F00011F480E005C0998388831B830A8381E0DE
:10460000DF91CF911F910F910895CF93DF93EC012C
:1046100088819981892B29F08A819B818617970748
:1046200060F4CE010E94EB22882341F08C819D81B1
:10463000892B19F4E881F981108281E0DF91CF9113
:104640000895EF92FF920F931F93CF93DF93EC01A6
:104650007B016C817D81E114F104C1F041155105AC
:1046600099F08A01060F171FB8010E9405238823BD
:1046700069F0888199812C813D81820F931FB70158
:104680000E94EE001D830C8381E001C080E0DF9179
:10469000CF911F910F91FF90EF900895EF92FF92AD
:1046A0000F931F93DF93CF93CDB7DEB728970FB645
:1046B000F894DEBF0FBECDBF7C01CB018E010F5F32
:1046C0001F4FB8014AE050E00E940401F801019038
:1046D0000020E9F73197E01BF10BC701B801AF01EA
:1046E0000E94212328960FB6F894DEBF0FBECDBFDF
:1046F000CF91DF911F910F91FF90EF900895611579
:10470000710511F480E00895DB010D900020E9F7B8
:104710001197A61BB70BAD010E9421230895FB0141
:1047200060817181448155810E9421230895CF9336
:10473000DF93EC0188819981009711F00E94971B0B
:10474000198218821D821C821B821A82DF91CF91EE
:104750000895EF92FF920F931F93CF93DF93EC0195
:104760007B018A01BA010E940523882321F4CE012E
:104770000E94972307C01D830C8388819981B7010C
:104780000E94EE00CE01DF91CF911F910F91FF901B
:10479000EF900895CF93DF93EC01198218821B826A
:1047A0001A821D821C826115710551F0DB010D908A
:1047B0000020E9F71197A61BB70BAD010E94A923B2
:1047C000DF91CF910895FC01808191810E94971B18
:1047D0000895CF93DF93EC010E940A1D68877987C3
:1047E0008A879B87E881F9810084F185E02DCE01DD
:1047F00009959C0197FF15C00E940A1D28853985DF
:104800004A855B85621B730B840B950B2C813D8164
:104810004E815F81621773078407950718F32FEFA6
:104820003FEFC901DF91CF910895CF93DF93EC0162
:10483000CE010E94E9239C0197FD0EC08D329105A7
:1048400059F0C0970A9740F0E881F9810680F78116
:10485000E02DCE010995ECCFC901DF91CF910895EC
:104860009F92AF92BF92CF92DF92EF92FF920F93FF
:104870001F93CF93DF936C01B62E0E941524EC0199
:1048800097FF04C0EE24FF2487014CC09924EE2436
:10489000FF248701AB2CBB24A7FCB094CA15DB0511
:1048A00029F1CD32D10519F4992493941FC0CE017A
:1048B000C0970A97D8F4C801B7012AE030E040E079
:1048C00050E00E9412297B018C01CE01AA2797FD9E
:1048D000A095BA2FE80EF91E0A1F1B1F80ED9FEF4F
:1048E000AFEFBFEFE80EF91E0A1F1B1FD601ED91B7
:1048F000FC910680F781E02DC6010995C6010E9452
:10490000E923EC01C0970A9748F2CA15DB0531F29A
:10491000992041F010950095F094E094E11CF11C71
:10492000011D111DB701C801DF91CF911F910F919A
:10493000FF90EF90DF90CF90BF90AF909F90089541
:1049400061E00E943024089570E0382F20E0622B4F
:10495000732BCB0108956F927F928F929F92AF92AB
:10496000BF92CF92DF92EF92FF920F931F93CF935C
:10497000DF938C01009729F4CB010E94FA1A8C0175
:10498000BBC08EEFE82E8FEFF82EE00EF11E48012F
:10499000860E971E8E149F0408F4ACC0D7014D916B
:1049A0005C91119746175707B8F04530510508F448
:1049B000A3C0CA0104978617970708F49DC0425008
:1049C0005040461B570BF401419351936D937C93D8
:1049D000CF010E94971B90C05B01A41AB50A380151
:1049E000640E751EA091CD06B091CE06CC24DD24B8
:1049F000E0E0F0E047C0A615B705A9F5CD91DC9140
:104A00001197CE0102968A159B0568F1CE018A198D
:104A10009B09029612962C91129713963C9105973A
:104A200058F0F40122833383CA19DB09D183C08390
:104A3000D7016D937C9309C04E5F5F4F4C0F5D1F94
:104A4000F70151834083C901FC01C114D10431F045
:104A5000D6011396FC93EE9312974EC0F093CE06B8
:104A6000E093CD0649C08D919C911197E817F90705
:104A700008F4FC016D0112968C91129713969C918B
:104A80009C01D901109709F0B6CF8091CB06909187
:104A9000CC0686159705E9F4E617F707D0F42091C0
:104AA0007F02309180022115310541F42DB73EB7C8
:104AB00080917B0290917C02281B390B8216930611
:104AC000C8F49092CC068092CB06F7017183608384
:104AD00013C0CB010E94FA1AEC01009759F0D701DC
:104AE0004D915C91B8010E94E500C8010E94971B9E
:104AF0008E0102C000E010E0C801DF91CF911F914C
:104B00000F91FF90EF90DF90CF90BF90AF909F906C
:104B10008F907F906F9008955058BB27AA270ED092
:104B200075C166D130F06BD120F031F49F3F11F4A4
:104B30001EF45BC10EF4E095E7FB51C1E92F77D17C
:104B400080F3BA17620773078407950718F071F4AA
:104B50009EF58FC10EF4E0950B2EBA2FA02D0B0100
:104B6000B90190010C01CA01A0011124FF27591BB2
:104B700099F0593F50F4503E68F11A16F040A22FB8
:104B8000232F342F4427585FF3CF46953795279529
:104B9000A795F0405395C9F77EF41F16BA0B620B28
:104BA000730B840BBAF09150A1F0FF0FBB1F661F6F
:104BB000771F881FC2F70EC0BA0F621F731F841FB2
:104BC00048F4879577956795B795F7959E3F08F0D8
:104BD000B3CF9395880F08F09927EE0F9795879597
:104BE0000895D9D008F481E008950CD00FC107D101
:104BF00040F0FED030F021F45F3F19F0F0C05111C9
:104C000039C1F3C014D198F39923C9F35523B1F3F3
:104C1000951B550BBB27AA2762177307840738F02B
:104C20009F5F5F4F220F331F441FAA1FA9F333D08A
:104C30000E2E3AF0E0E830D091505040E695001C3E
:104C4000CAF729D0FE2F27D0660F771F881FBB1FFA
:104C5000261737074807AB07B0E809F0BB0B802DD4
:104C6000BF01FF2793585F4F2AF09E3F510568F020
:104C7000B6C000C15F3FECF3983EDCF386957795B4
:104C80006795B795F7959F5FC9F7880F911D969522
:104C9000879597F90895E1E0660F771F881FBB1F7E
:104CA000621773078407BA0720F0621B730B840B2B
:104CB000BA0BEE1F88F7E095089504D06894B111FF
:104CC000D9C00895BCD088F09F5790F0B92F99278C
:104CD000B751A0F0D1F0660F771F881F991F1AF007
:104CE000BA95C9F712C0B13081F0C3D0B1E00895D0
:104CF000C0C0672F782F8827B85F39F0B93FCCF351
:104D0000869577956795B395D9F73EF490958095FC
:104D1000709561957F4F8F4F9F4F0895E89409C01C
:104D200097FB3EF490958095709561957F4F8F4FDE
:104D30009F4F9923A9F0F92F96E9BB279395F695F4
:104D4000879577956795B795F111F8CFFAF4BB0F72
:104D500011F460FF1BC06F5F7F4F8F4F9F4F16C0D6
:104D6000882311F096E911C0772321F09EE8872F60
:104D7000762F05C0662371F096E8862F70E060E01C
:104D80002AF09A95660F771F881FDAF7880F969595
:104D9000879597F90895990F0008550FAA0BE0E839
:104DA000FEEF16161706E807F907C0F012161306ED
:104DB000E407F50798F0621B730B840B950B39F42D
:104DC0000A2661F0232B242B252B21F408950A2693
:104DD00009F4A140A6958FEF811D811D089597F9D3
:104DE0009F6780E870E060E008959FEF80EC089591
:104DF00000240A94161617061806090608950024BA
:104E00000A9412161306140605060895092E039433
:104E1000000C11F4882352F0BB0F40F4BF2B11F4A7
:104E200060FF04C06F5F7F4F8F4F9F4F089557FD06
:104E30009058440F551F59F05F3F71F04795880F08
:104E400097FB991F61F09F3F79F08795089512169F
:104E500013061406551FF2CF4695F1DF08C016164B
:104E600017061806991FF1CF8695710561050894FC
:104E70000895E894BB2766277727CB0197F9089513
:104E80008ADF08F48FEF08950BD0C0CFB1DF28F090
:104E9000B6DF18F0952309F0A2CFA7CF1124EACFEF
:104EA000C6DFA0F3959FD1F3950F50E0551F629F89
:104EB000F001729FBB27F00DB11D639FAA27F00D73
:104EC000B11DAA1F649F6627B00DA11D661F829F9A
:104ED0002227B00DA11D621F739FB00DA11D621F7F
:104EE000839FA00D611D221F749F3327A00D611D9C
:104EF000231F849F600D211D822F762F6A2F11247E
:104F00009F5750408AF0E1F088234AF0EE0FFF1FD0
:104F1000BB1F661F771F881F91505040A9F79E3F07
:104F2000510570F05CCFA6CF5F3FECF3983EDCF309
:104F3000869577956795B795F795E7959F5FC1F744
:104F4000FE2B880F911D9695879597F90895FA0184
:104F5000EE0FFF1F30962105310599F1611571059E
:104F600061F48038BFE39B0749F16894903881056C
:104F700061F08038BFEF9B0741F0992342F5FF3F76
:104F8000E1053105210511F1E8940894E795D9016F
:104F9000AA2329F4AB2FBE2FF85FD0F310C0FF5F18
:104FA00070F4A695E0F7F73950F019F0FF3A38F4AD
:104FB0009F779F930CD00F9007FC905808953EF078
:104FC00014CF60E070E080E89FE308954FE79F779B
:104FD0005F934F933F932F93A2D02F913F914F9187
:104FE0005F9152DF09C0D7DE880B990B089519F441
:104FF0000EF0F5CE3ECFF9CE22DFC8F39638C0F7DB
:1050000007F80F92E8942BE33AEA48EB5FE74ADFB0
:105010000F920F920F924DB75EB70F92C0D0E8E695
:10502000F0E016D04F915F91EF91FF91E595EE1F63
:10503000FF1F49F0FE57E0684427EE0F441FFA9522
:10504000E1F74195550B32D00F9007FE26C0089529
:10505000DF93CF931F930F93FF92EF92DF927B0129
:105060008C01689405C0DA2EEF011ADFFE01E89486
:10507000A5912591359145915591AEF3EF015EDDF6
:10508000FE019701A801DA9479F7DF90EF90FF9085
:105090000F911F91CF91DF9108959B01AC0160E0CA
:1050A00070E080E89FE3A1CD9ACEACC0C8DEE8F303
:1050B0009923D9F3940F511DBBF39150504094F0B4
:1050C00059F0882332F0660F771F881F91505040A7
:1050D000C1F79E3F510544F7880F911D969587951E
:1050E00097F908955F3FACF0983E9CF0BB278695FA
:1050F00077956795B79508F4B1609395C1F7BB0FA5
:1051000058F711F460FFE8CF6F5F7F4F8F4F9F4FCD
:10511000E3CFB0CE0EF076C068CE689460CE8FDE5E
:10512000C8F39923D1F3C6F3DF93CF931F930F9363
:10513000FF92C92FDD2788232AF02197660F771F5A
:10514000881FDAF720E030E040E85FEB9FE3883922
:1051500020F0803E30F021968F77DFDCE0E9F0E050
:1051600003C0DBDCEDEBF0E073DF8B01BE01EC0193
:10517000FB2E6F5771097595771F880B990BD0DD42
:1051800028E132E741E35FE38BDEAF2D9801AE010A
:10519000FF900F911F91CF91DF91D0DC37CEFA01B4
:1051A000DC01AA0FBB1F9B01AC01BF5728F42227CB
:1051B0003327442750781FC0B75188F4AB2F002401
:1051C000469537952795011CA395D2F3002069F0E9
:1051D000220F331F441FB395DAF30DD09DCC6130FD
:1051E0007105A0E88A07B94630F49B01AC01662737
:1051F000772788279078309621F020833183428367
:10520000538308959F3F49F0915028F486957795F0
:105210006795B7959F5F80389F4F880F96958795C4
:1052200097F90895629FD001739FF001829FE00D6E
:10523000F11D649FE00DF11D929FF00D839FF00D15
:10524000749FF00D659FF00D9927729FB00DE11DC1
:10525000F91F639FB00DE11DF91FBD01CF0111249E
:10526000089597FB092E07260AD077FD04D02ED08B
:1052700006D000201AF4709561957F4F0895F6F7D7
:10528000909581959F4F0895A1E21A2EAA1BBB1BF2
:10529000FD010DC0AA1FBB1FEE1FFF1FA217B30702
:1052A000E407F50720F0A21BB30BE40BF50B661F18
:1052B000771F881F991F1A9469F7609570958095DC
:1052C00090959B01AC01BD01CF010895AA1BBB1BAA
:1052D00051E107C0AA1FBB1FA617B70710F0A61BF6
:1052E000B70B881F991F5A95A9F780959095BC0117
:1052F000CD010895EE0FFF1F0590F491E02D099464
:04530000F894FFCF4F
:1053040000300031006572726F72205B5344206379
:105314006172645D3A20636172642E626567696ECE
:10532400006572726F72205B534420636172645D26
:105334003A2046617431363A3A696E697400320033
:105344006572726F72205B5254435D3A2073796EBA
:1053540063002E637376006572726F72205B534430
:1053640020636172645D3A206F70656E200065721F
:10537400726F72205B534420636172645D3A2063F0
:105384006C6F73650033003400436865636B737539
:105394006D206572726F722C090054696D65206FFF
:1053A4007574206572726F722C0900436F6E6E659E
:1053B4006374206572726F722C090041636B204C18
:1053C4006F77206572726F722C090041636B2048FD
:1053D400696768206572726F722C0900556E6B6E76
:1053E4006F776E206572726F722C09003700372E4A
:1053F4003100372E3200372E33006572726F7220FF
:105404005B534420636172645D3A206F70656E0083
:10541400380020002C006572726F72205B534420A8
:10542400636172645D3A207772697465003130009B
:10543400743A00683A00434F323A00563A003C341A
:105444003030007E006C6F6720626567696E2000F3
:105454006C6F6720656E64006E616E00696E660035
:105464006F7666002E002B8726401EA7C83EB7FE27
:1054740076BDFFFFFFFF2C010000018000CF060076
:105484000000000000E908DC1D0000400014005486
:1054940000000000007713DC1D1F1C1F1E1F1E1FB1
:1054A4001F1E1F1E1F000000000D18DC1795179EFD
:1054B40017B317C417000000002622DC1DB921ED24
:0654C40021CD211622009B
:00000001FF
